{
  "_format": "hh-sol-artifact-1",
  "contractName": "May",
  "sourceName": "contracts/May.sol",
  "abi": [
    {
      "inputs": [],
      "stateMutability": "nonpayable",
      "type": "constructor"
    },
    {
      "inputs": [
        {
          "internalType": "string",
          "name": "name",
          "type": "string"
        },
        {
          "internalType": "string",
          "name": "usn",
          "type": "string"
        },
        {
          "internalType": "string",
          "name": "googleDriveLink",
          "type": "string"
        },
        {
          "internalType": "string",
          "name": "branch",
          "type": "string"
        },
        {
          "internalType": "string",
          "name": "subject",
          "type": "string"
        },
        {
          "internalType": "string",
          "name": "message",
          "type": "string"
        }
      ],
      "name": "buyChai",
      "outputs": [],
      "stateMutability": "payable",
      "type": "function"
    },
    {
      "inputs": [],
      "name": "getMemos",
      "outputs": [
        {
          "components": [
            {
              "internalType": "string",
              "name": "name",
              "type": "string"
            },
            {
              "internalType": "string",
              "name": "usn",
              "type": "string"
            },
            {
              "internalType": "string",
              "name": "googleDriveLink",
              "type": "string"
            },
            {
              "internalType": "string",
              "name": "branch",
              "type": "string"
            },
            {
              "internalType": "string",
              "name": "subject",
              "type": "string"
            },
            {
              "internalType": "string",
              "name": "message",
              "type": "string"
            },
            {
              "internalType": "uint256",
              "name": "timestamp",
              "type": "uint256"
            },
            {
              "internalType": "address",
              "name": "from",
              "type": "address"
            }
          ],
          "internalType": "struct May.Memo[]",
          "name": "",
          "type": "tuple[]"
        }
      ],
      "stateMutability": "view",
      "type": "function"
    }
  ],
  "bytecode": "0x608060405234801561001057600080fd5b5033600160006101000a81548173ffffffffffffffffffffffffffffffffffffffff021916908373ffffffffffffffffffffffffffffffffffffffff16021790555061100a806100616000396000f3fe6080604052600436106100295760003560e01c806354ec4b741461002e578063865c51721461004a575b600080fd5b61004860048036038101906100439190610848565b610075565b005b34801561005657600080fd5b5061005f61027b565b60405161006c9190610beb565b60405180910390f35b600034116100b8576040517f08c379a00000000000000000000000000000000000000000000000000000000081526004016100af90610c6a565b60405180910390fd5b600160009054906101000a900473ffffffffffffffffffffffffffffffffffffffff1673ffffffffffffffffffffffffffffffffffffffff166108fc349081150290604051600060405180830381858888f19350505050158015610120573d6000803e3d6000fd5b5060006040518061010001604052808881526020018781526020018681526020018581526020018481526020018381526020014281526020013373ffffffffffffffffffffffffffffffffffffffff16815250908060018154018082558091505060019003906000526020600020906008020160009091909190915060008201518160000190816101b19190610e96565b5060208201518160010190816101c79190610e96565b5060408201518160020190816101dd9190610e96565b5060608201518160030190816101f39190610e96565b5060808201518160040190816102099190610e96565b5060a082015181600501908161021f9190610e96565b5060c0820151816006015560e08201518160070160006101000a81548173ffffffffffffffffffffffffffffffffffffffff021916908373ffffffffffffffffffffffffffffffffffffffff1602179055505050505050505050565b606060008080549050116102c4576040517f08c379a00000000000000000000000000000000000000000000000000000000081526004016102bb90610fb4565b60405180910390fd5b6000805480602002602001604051908101604052809291908181526020016000905b828210156106e557838290600052602060002090600802016040518061010001604052908160008201805461031a90610cb9565b80601f016020809104026020016040519081016040528092919081815260200182805461034690610cb9565b80156103935780601f1061036857610100808354040283529160200191610393565b820191906000526020600020905b81548152906001019060200180831161037657829003601f168201915b505050505081526020016001820180546103ac90610cb9565b80601f01602080910402602001604051908101604052809291908181526020018280546103d890610cb9565b80156104255780601f106103fa57610100808354040283529160200191610425565b820191906000526020600020905b81548152906001019060200180831161040857829003601f168201915b5050505050815260200160028201805461043e90610cb9565b80601f016020809104026020016040519081016040528092919081815260200182805461046a90610cb9565b80156104b75780601f1061048c576101008083540402835291602001916104b7565b820191906000526020600020905b81548152906001019060200180831161049a57829003601f168201915b505050505081526020016003820180546104d090610cb9565b80601f01602080910402602001604051908101604052809291908181526020018280546104fc90610cb9565b80156105495780601f1061051e57610100808354040283529160200191610549565b820191906000526020600020905b81548152906001019060200180831161052c57829003601f168201915b5050505050815260200160048201805461056290610cb9565b80601f016020809104026020016040519081016040528092919081815260200182805461058e90610cb9565b80156105db5780601f106105b0576101008083540402835291602001916105db565b820191906000526020600020905b8154815290600101906020018083116105be57829003601f168201915b505050505081526020016005820180546105f490610cb9565b80601f016020809104026020016040519081016040528092919081815260200182805461062090610cb9565b801561066d5780601f106106425761010080835404028352916020019161066d565b820191906000526020600020905b81548152906001019060200180831161065057829003601f168201915b50505050508152602001600682015481526020016007820160009054906101000a900473ffffffffffffffffffffffffffffffffffffffff1673ffffffffffffffffffffffffffffffffffffffff1673ffffffffffffffffffffffffffffffffffffffff1681525050815260200190600101906102e6565b50505050905090565b6000604051905090565b600080fd5b600080fd5b600080fd5b600080fd5b6000601f19601f8301169050919050565b7f4e487b7100000000000000000000000000000000000000000000000000000000600052604160045260246000fd5b6107558261070c565b810181811067ffffffffffffffff821117156107745761077361071d565b5b80604052505050565b60006107876106ee565b9050610793828261074c565b919050565b600067ffffffffffffffff8211156107b3576107b261071d565b5b6107bc8261070c565b9050602081019050919050565b82818337600083830152505050565b60006107eb6107e684610798565b61077d565b90508281526020810184848401111561080757610806610707565b5b6108128482856107c9565b509392505050565b600082601f83011261082f5761082e610702565b5b813561083f8482602086016107d8565b91505092915050565b60008060008060008060c08789031215610865576108646106f8565b5b600087013567ffffffffffffffff811115610883576108826106fd565b5b61088f89828a0161081a565b965050602087013567ffffffffffffffff8111156108b0576108af6106fd565b5b6108bc89828a0161081a565b955050604087013567ffffffffffffffff8111156108dd576108dc6106fd565b5b6108e989828a0161081a565b945050606087013567ffffffffffffffff81111561090a576109096106fd565b5b61091689828a0161081a565b935050608087013567ffffffffffffffff811115610937576109366106fd565b5b61094389828a0161081a565b92505060a087013567ffffffffffffffff811115610964576109636106fd565b5b61097089828a0161081a565b9150509295509295509295565b600081519050919050565b600082825260208201905092915050565b6000819050602082019050919050565b600081519050919050565b600082825260208201905092915050565b60005b838110156109e35780820151818401526020810190506109c8565b60008484015250505050565b60006109fa826109a9565b610a0481856109b4565b9350610a148185602086016109c5565b610a1d8161070c565b840191505092915050565b6000819050919050565b610a3b81610a28565b82525050565b600073ffffffffffffffffffffffffffffffffffffffff82169050919050565b6000610a6c82610a41565b9050919050565b610a7c81610a61565b82525050565b6000610100830160008301518482036000860152610aa082826109ef565b91505060208301518482036020860152610aba82826109ef565b91505060408301518482036040860152610ad482826109ef565b91505060608301518482036060860152610aee82826109ef565b91505060808301518482036080860152610b0882826109ef565b91505060a083015184820360a0860152610b2282826109ef565b91505060c0830151610b3760c0860182610a32565b5060e0830151610b4a60e0860182610a73565b508091505092915050565b6000610b618383610a82565b905092915050565b6000602082019050919050565b6000610b818261097d565b610b8b8185610988565b935083602082028501610b9d85610999565b8060005b85811015610bd95784840389528151610bba8582610b55565b9450610bc583610b69565b925060208a01995050600181019050610ba1565b50829750879550505050505092915050565b60006020820190508181036000830152610c058184610b76565b905092915050565b600082825260208201905092915050565b7f506c65617365207061792067726561746572207468616e203020657468657200600082015250565b6000610c54601f83610c0d565b9150610c5f82610c1e565b602082019050919050565b60006020820190508181036000830152610c8381610c47565b9050919050565b7f4e487b7100000000000000000000000000000000000000000000000000000000600052602260045260246000fd5b60006002820490506001821680610cd157607f821691505b602082108103610ce457610ce3610c8a565b5b50919050565b60008190508160005260206000209050919050565b60006020601f8301049050919050565b600082821b905092915050565b600060088302610d4c7fffffffffffffffffffffffffffffffffffffffffffffffffffffffffffffffff82610d0f565b610d568683610d0f565b95508019841693508086168417925050509392505050565b6000819050919050565b6000610d93610d8e610d8984610a28565b610d6e565b610a28565b9050919050565b6000819050919050565b610dad83610d78565b610dc1610db982610d9a565b848454610d1c565b825550505050565b600090565b610dd6610dc9565b610de1818484610da4565b505050565b5b81811015610e0557610dfa600082610dce565b600181019050610de7565b5050565b601f821115610e4a57610e1b81610cea565b610e2484610cff565b81016020851015610e33578190505b610e47610e3f85610cff565b830182610de6565b50505b505050565b600082821c905092915050565b6000610e6d60001984600802610e4f565b1980831691505092915050565b6000610e868383610e5c565b9150826002028217905092915050565b610e9f826109a9565b67ffffffffffffffff811115610eb857610eb761071d565b5b610ec28254610cb9565b610ecd828285610e09565b600060209050601f831160018114610f005760008415610eee578287015190505b610ef88582610e7a565b865550610f60565b601f198416610f0e86610cea565b60005b82811015610f3657848901518255600182019150602085019450602081019050610f11565b86831015610f535784890151610f4f601f891682610e5c565b8355505b6001600288020188555050505b505050505050565b7f456d707479000000000000000000000000000000000000000000000000000000600082015250565b6000610f9e600583610c0d565b9150610fa982610f68565b602082019050919050565b60006020820190508181036000830152610fcd81610f91565b905091905056fea2646970667358221220817a641cb766cb90867e9f9ee19fe3e28634933495e3fa21c426241cf30d80f364736f6c63430008110033",
  "linkReferences": {},
  "deployedLinkReferences": {}
}